{
  "_format": "hh-sol-artifact-1",
  "contractName": "Wallet",
  "sourceName": "contracts/Wallet.sol",
  "abi": [
    {
      "inputs": [
        {
          "internalType": "address",
          "name": "_owner",
          "type": "address"
        }
      ],
      "stateMutability": "nonpayable",
      "type": "constructor"
    },
    {
      "anonymous": false,
      "inputs": [
        {
          "indexed": false,
          "internalType": "uint8",
          "name": "version",
          "type": "uint8"
        }
      ],
      "name": "Initialized",
      "type": "event"
    },
    {
      "anonymous": false,
      "inputs": [
        {
          "indexed": true,
          "internalType": "address",
          "name": "owner",
          "type": "address"
        }
      ],
      "name": "WalletInitialized",
      "type": "event"
    },
    {
      "inputs": [],
      "name": "entryPoint",
      "outputs": [
        {
          "internalType": "contract IEntryPoint",
          "name": "",
          "type": "address"
        }
      ],
      "stateMutability": "view",
      "type": "function"
    },
    {
      "inputs": [
        {
          "internalType": "address",
          "name": "dest",
          "type": "address"
        },
        {
          "internalType": "uint256",
          "name": "value",
          "type": "uint256"
        },
        {
          "internalType": "bytes",
          "name": "func",
          "type": "bytes"
        }
      ],
      "name": "execute",
      "outputs": [],
      "stateMutability": "nonpayable",
      "type": "function"
    },
    {
      "inputs": [
        {
          "internalType": "address[]",
          "name": "dest",
          "type": "address[]"
        },
        {
          "internalType": "bytes[]",
          "name": "func",
          "type": "bytes[]"
        }
      ],
      "name": "executeBatch",
      "outputs": [],
      "stateMutability": "nonpayable",
      "type": "function"
    },
    {
      "inputs": [],
      "name": "getLoans",
      "outputs": [
        {
          "components": [
            {
              "internalType": "address",
              "name": "contract_",
              "type": "address"
            },
            {
              "internalType": "uint256",
              "name": "id",
              "type": "uint256"
            },
            {
              "internalType": "address",
              "name": "owner",
              "type": "address"
            },
            {
              "internalType": "bool",
              "name": "borrowed",
              "type": "bool"
            },
            {
              "internalType": "uint256",
              "name": "startTime",
              "type": "uint256"
            },
            {
              "internalType": "uint256",
              "name": "endTime",
              "type": "uint256"
            }
          ],
          "internalType": "struct Wallet.NFT[]",
          "name": "",
          "type": "tuple[]"
        }
      ],
      "stateMutability": "view",
      "type": "function"
    },
    {
      "inputs": [],
      "name": "getNonce",
      "outputs": [
        {
          "internalType": "uint256",
          "name": "",
          "type": "uint256"
        }
      ],
      "stateMutability": "view",
      "type": "function"
    },
    {
      "inputs": [
        {
          "internalType": "address",
          "name": "",
          "type": "address"
        },
        {
          "internalType": "address",
          "name": "",
          "type": "address"
        },
        {
          "internalType": "uint256[]",
          "name": "",
          "type": "uint256[]"
        },
        {
          "internalType": "uint256[]",
          "name": "",
          "type": "uint256[]"
        },
        {
          "internalType": "bytes",
          "name": "",
          "type": "bytes"
        }
      ],
      "name": "onERC1155BatchReceived",
      "outputs": [
        {
          "internalType": "bytes4",
          "name": "",
          "type": "bytes4"
        }
      ],
      "stateMutability": "pure",
      "type": "function"
    },
    {
      "inputs": [
        {
          "internalType": "address",
          "name": "",
          "type": "address"
        },
        {
          "internalType": "address",
          "name": "",
          "type": "address"
        },
        {
          "internalType": "uint256",
          "name": "",
          "type": "uint256"
        },
        {
          "internalType": "uint256",
          "name": "",
          "type": "uint256"
        },
        {
          "internalType": "bytes",
          "name": "",
          "type": "bytes"
        }
      ],
      "name": "onERC1155Received",
      "outputs": [
        {
          "internalType": "bytes4",
          "name": "",
          "type": "bytes4"
        }
      ],
      "stateMutability": "pure",
      "type": "function"
    },
    {
      "inputs": [
        {
          "internalType": "address",
          "name": "",
          "type": "address"
        },
        {
          "internalType": "address",
          "name": "",
          "type": "address"
        },
        {
          "internalType": "uint256",
          "name": "",
          "type": "uint256"
        },
        {
          "internalType": "bytes",
          "name": "",
          "type": "bytes"
        }
      ],
      "name": "onERC721Received",
      "outputs": [
        {
          "internalType": "bytes4",
          "name": "",
          "type": "bytes4"
        }
      ],
      "stateMutability": "pure",
      "type": "function"
    },
    {
      "inputs": [],
      "name": "owner",
      "outputs": [
        {
          "internalType": "address",
          "name": "",
          "type": "address"
        }
      ],
      "stateMutability": "view",
      "type": "function"
    },
    {
      "inputs": [
        {
          "internalType": "uint256",
          "name": "index",
          "type": "uint256"
        }
      ],
      "name": "pullAsset",
      "outputs": [],
      "stateMutability": "nonpayable",
      "type": "function"
    },
    {
      "inputs": [
        {
          "internalType": "uint256[]",
          "name": "indexes",
          "type": "uint256[]"
        }
      ],
      "name": "releaseMultipleAssets",
      "outputs": [],
      "stateMutability": "nonpayable",
      "type": "function"
    },
    {
      "inputs": [
        {
          "internalType": "uint256",
          "name": "index",
          "type": "uint256"
        }
      ],
      "name": "releaseSingleAsset",
      "outputs": [],
      "stateMutability": "nonpayable",
      "type": "function"
    },
    {
      "inputs": [],
      "name": "safeTransferDataSel",
      "outputs": [
        {
          "internalType": "bytes4",
          "name": "",
          "type": "bytes4"
        }
      ],
      "stateMutability": "view",
      "type": "function"
    },
    {
      "inputs": [],
      "name": "safeTransferSel",
      "outputs": [
        {
          "internalType": "bytes4",
          "name": "",
          "type": "bytes4"
        }
      ],
      "stateMutability": "view",
      "type": "function"
    },
    {
      "inputs": [
        {
          "internalType": "bytes4",
          "name": "interfaceId",
          "type": "bytes4"
        }
      ],
      "name": "supportsInterface",
      "outputs": [
        {
          "internalType": "bool",
          "name": "",
          "type": "bool"
        }
      ],
      "stateMutability": "view",
      "type": "function"
    },
    {
      "inputs": [
        {
          "internalType": "address",
          "name": "",
          "type": "address"
        },
        {
          "internalType": "address",
          "name": "",
          "type": "address"
        },
        {
          "internalType": "address",
          "name": "",
          "type": "address"
        },
        {
          "internalType": "uint256",
          "name": "",
          "type": "uint256"
        },
        {
          "internalType": "bytes",
          "name": "",
          "type": "bytes"
        },
        {
          "internalType": "bytes",
          "name": "",
          "type": "bytes"
        }
      ],
      "name": "tokensReceived",
      "outputs": [],
      "stateMutability": "pure",
      "type": "function"
    },
    {
      "inputs": [
        {
          "internalType": "address",
          "name": "_contract",
          "type": "address"
        },
        {
          "internalType": "uint256",
          "name": "id",
          "type": "uint256"
        },
        {
          "internalType": "address",
          "name": "owner_",
          "type": "address"
        },
        {
          "internalType": "uint256",
          "name": "duration",
          "type": "uint256"
        }
      ],
      "name": "uponNFTLoan",
      "outputs": [],
      "stateMutability": "nonpayable",
      "type": "function"
    },
    {
      "inputs": [
        {
          "components": [
            {
              "internalType": "address",
              "name": "sender",
              "type": "address"
            },
            {
              "internalType": "uint256",
              "name": "nonce",
              "type": "uint256"
            },
            {
              "internalType": "bytes",
              "name": "initCode",
              "type": "bytes"
            },
            {
              "internalType": "bytes",
              "name": "callData",
              "type": "bytes"
            },
            {
              "internalType": "uint256",
              "name": "callGasLimit",
              "type": "uint256"
            },
            {
              "internalType": "uint256",
              "name": "verificationGasLimit",
              "type": "uint256"
            },
            {
              "internalType": "uint256",
              "name": "preVerificationGas",
              "type": "uint256"
            },
            {
              "internalType": "uint256",
              "name": "maxFeePerGas",
              "type": "uint256"
            },
            {
              "internalType": "uint256",
              "name": "maxPriorityFeePerGas",
              "type": "uint256"
            },
            {
              "internalType": "bytes",
              "name": "paymasterAndData",
              "type": "bytes"
            },
            {
              "internalType": "bytes",
              "name": "signature",
              "type": "bytes"
            }
          ],
          "internalType": "struct UserOperation",
          "name": "userOp",
          "type": "tuple"
        },
        {
          "internalType": "bytes32",
          "name": "userOpHash",
          "type": "bytes32"
        },
        {
          "internalType": "uint256",
          "name": "missingAccountFunds",
          "type": "uint256"
        }
      ],
      "name": "validateUserOp",
      "outputs": [
        {
          "internalType": "uint256",
          "name": "validationData",
          "type": "uint256"
        }
      ],
      "stateMutability": "nonpayable",
      "type": "function"
    },
    {
      "stateMutability": "payable",
      "type": "receive"
    }
  ],
  "bytecode": "0x60806040526040518060600160405280602581526020016200387b6025913980519060200120600060026101000a81548163ffffffff021916908360e01c0217905550604051806060016040528060298152602001620038a06029913980519060200120600060066101000a81548163ffffffff021916908360e01c02179055506040518060600160405280602f8152602001620038c9602f9139805190602001206000600a6101000a81548163ffffffff021916908360e01c02179055506040518060400160405280601881526020017f617070726f766528616464726573732c75696e74323536290000000000000000815250805190602001206000600e6101000a81548163ffffffff021916908360e01c02179055506040518060400160405280601f81526020017f736574417070726f76616c466f72416c6c28616464726573732c626f6f6c290081525080519060200120600060126101000a81548163ffffffff021916908360e01c02179055503480156200017f57600080fd5b50604051620038f8380380620038f88339818101604052810190620001a59190620003a7565b620001b681620001cd60201b60201c565b620001c66200027660201b60201c565b50620004bd565b80600160006101000a81548173ffffffffffffffffffffffffffffffffffffffff021916908373ffffffffffffffffffffffffffffffffffffffff160217905550600160009054906101000a900473ffffffffffffffffffffffffffffffffffffffff1673ffffffffffffffffffffffffffffffffffffffff167f3d6989c650f56d6218b28f113ea9388a71dcb843b564e0900eaa70a5a096456f60405160405180910390a250565b600060019054906101000a900460ff1615620002c9576040517f08c379a0000000000000000000000000000000000000000000000000000000008152600401620002c09062000460565b60405180910390fd5b60ff801660008054906101000a900460ff1660ff1610156200033b5760ff6000806101000a81548160ff021916908360ff1602179055507f7f26b83ff96e1f2b6a682f133852f6798a09c465da95921460cefb384740249860ff604051620003329190620004a0565b60405180910390a15b565b600080fd5b600073ffffffffffffffffffffffffffffffffffffffff82169050919050565b60006200036f8262000342565b9050919050565b620003818162000362565b81146200038d57600080fd5b50565b600081519050620003a18162000376565b92915050565b600060208284031215620003c057620003bf6200033d565b5b6000620003d08482850162000390565b91505092915050565b600082825260208201905092915050565b7f496e697469616c697a61626c653a20636f6e747261637420697320696e69746960008201527f616c697a696e6700000000000000000000000000000000000000000000000000602082015250565b600062000448602783620003d9565b91506200045582620003ea565b604082019050919050565b600060208201905081810360008301526200047b8162000439565b9050919050565b600060ff82169050919050565b6200049a8162000482565b82525050565b6000602082019050620004b760008301846200048f565b92915050565b6133ae80620004cd6000396000f3fe60806040526004361061010c5760003560e01c8063aa4a871111610095578063c2c959a811610064578063c2c959a814610385578063cd95868e146103ae578063d087d288146103d9578063e8a32fa414610404578063f23a6e611461042d57610113565b8063aa4a8711146102c9578063b0d691fe146102f4578063b61d27f61461031f578063bc197c811461034857610113565b8063150b7a02116100dc578063150b7a02146101d257806318dfb3c71461020f5780633a871cdd1461023857806389018897146102755780638da5cb5b1461029e57610113565b806223de291461011857806301ffc9a71461014157806303ec52661461017e57806312dc8ca0146101a957610113565b3661011357005b600080fd5b34801561012457600080fd5b5061013f600480360381019061013a9190611f70565b61046a565b005b34801561014d57600080fd5b5061016860048036038101906101639190612097565b610474565b60405161017591906120df565b60405180910390f35b34801561018a57600080fd5b506101936105ae565b6040516101a09190612109565b60405180910390f35b3480156101b557600080fd5b506101d060048036038101906101cb9190612124565b6105c1565b005b3480156101de57600080fd5b506101f960048036038101906101f4919061218b565b610864565b6040516102069190612109565b60405180910390f35b34801561021b57600080fd5b50610236600480360381019061023191906122bf565b610879565b005b34801561024457600080fd5b5061025f600480360381019061025a919061239b565b61098b565b60405161026c9190612419565b60405180910390f35b34801561028157600080fd5b5061029c60048036038101906102979190612434565b6109be565b005b3480156102aa57600080fd5b506102b3610a31565b6040516102c09190612470565b60405180910390f35b3480156102d557600080fd5b506102de610a57565b6040516102eb91906125e2565b60405180910390f35b34801561030057600080fd5b50610309610b9b565b6040516103169190612663565b60405180910390f35b34801561032b57600080fd5b506103466004803603810190610341919061267e565b610ba0565b005b34801561035457600080fd5b5061036f600480360381019061036a9190612748565b610c44565b60405161037c9190612109565b60405180910390f35b34801561039157600080fd5b506103ac60048036038101906103a79190612434565b610c5c565b005b3480156103ba57600080fd5b506103c3610c70565b6040516103d09190612109565b60405180910390f35b3480156103e557600080fd5b506103ee610c83565b6040516103fb9190612419565b60405180910390f35b34801561041057600080fd5b5061042b60048036038101906104269190612973565b610d0e565b005b34801561043957600080fd5b50610454600480360381019061044f91906129bc565b610d5c565b6040516104619190612109565b60405180910390f35b5050505050505050565b60007f150b7a02000000000000000000000000000000000000000000000000000000007bffffffffffffffffffffffffffffffffffffffffffffffffffffffff1916827bffffffffffffffffffffffffffffffffffffffffffffffffffffffff1916148061053f57507f4e2312e0000000000000000000000000000000000000000000000000000000007bffffffffffffffffffffffffffffffffffffffffffffffffffffffff1916827bffffffffffffffffffffffffffffffffffffffffffffffffffffffff1916145b806105a757507f01ffc9a7000000000000000000000000000000000000000000000000000000007bffffffffffffffffffffffffffffffffffffffffffffffffffffffff1916827bffffffffffffffffffffffffffffffffffffffffffffffffffffffff1916145b9050919050565b6000600a9054906101000a900460e01b81565b60006040518060c001604052808673ffffffffffffffffffffffffffffffffffffffff1681526020018581526020018473ffffffffffffffffffffffffffffffffffffffff16815260200160011515815260200142815260200183426106279190612a85565b8152509050600281908060018154018082558091505060019003906000526020600020906005020160009091909190915060008201518160000160006101000a81548173ffffffffffffffffffffffffffffffffffffffff021916908373ffffffffffffffffffffffffffffffffffffffff1602179055506020820151816001015560408201518160020160006101000a81548173ffffffffffffffffffffffffffffffffffffffff021916908373ffffffffffffffffffffffffffffffffffffffff16021790555060608201518160020160146101000a81548160ff0219169083151502179055506080820151816003015560a082015181600401555050600360008673ffffffffffffffffffffffffffffffffffffffff1673ffffffffffffffffffffffffffffffffffffffff16815260200190815260200160002081908060018154018082558091505060019003906000526020600020906005020160009091909190915060008201518160000160006101000a81548173ffffffffffffffffffffffffffffffffffffffff021916908373ffffffffffffffffffffffffffffffffffffffff1602179055506020820151816001015560408201518160020160006101000a81548173ffffffffffffffffffffffffffffffffffffffff021916908373ffffffffffffffffffffffffffffffffffffffff16021790555060608201518160020160146101000a81548160ff0219169083151502179055506080820151816003015560a0820151816004015550505050505050565b600063150b7a0260e01b905095945050505050565b610881610d72565b8181905084849050146108c9576040517f08c379a00000000000000000000000000000000000000000000000000000000081526004016108c090612b16565b60405180910390fd5b60005b84849050811015610984576109718585838181106108ed576108ec612b36565b5b90506020020160208101906109029190612b65565b600085858581811061091757610916612b36565b5b90506020028101906109299190612ba1565b8080601f016020809104026020016040519081016040528093929190818152602001838380828437600081840152601f19601f82011690508083019250505050505050610e3a565b808061097c90612c04565b9150506108cc565b5050505050565b6000610995610f07565b61099f8484610f7e565b90506109ae846020013561105c565b6109b78261105f565b9392505050565b600281815481106109d2576109d1612b36565b5b9060005260206000209060050201600401544211610a25576040517f08c379a0000000000000000000000000000000000000000000000000000000008152600401610a1c90612c98565b60405180910390fd5b610a2e816110fb565b50565b600160009054906101000a900473ffffffffffffffffffffffffffffffffffffffff1681565b60606002805480602002602001604051908101604052809291908181526020016000905b82821015610b9257838290600052602060002090600502016040518060c00160405290816000820160009054906101000a900473ffffffffffffffffffffffffffffffffffffffff1673ffffffffffffffffffffffffffffffffffffffff1673ffffffffffffffffffffffffffffffffffffffff168152602001600182015481526020016002820160009054906101000a900473ffffffffffffffffffffffffffffffffffffffff1673ffffffffffffffffffffffffffffffffffffffff1673ffffffffffffffffffffffffffffffffffffffff1681526020016002820160149054906101000a900460ff161515151581526020016003820154815260200160048201548152505081526020019060010190610a7b565b50505050905090565b600090565b610ba8610d72565b610bf7848484848080601f016020809104026020016040519081016040528093929190818152602001838380828437600081840152601f19601f82011690508083019250505050505050610e3a565b610bff61122c565b610c3e576040517f08c379a0000000000000000000000000000000000000000000000000000000008152600401610c3590612d04565b60405180910390fd5b50505050565b600063bc197c8160e01b905098975050505050505050565b610c64610d72565b610c6d816110fb565b50565b600060069054906101000a900460e01b81565b6000610c8d610b9b565b73ffffffffffffffffffffffffffffffffffffffff166335567e1a3060006040518363ffffffff1660e01b8152600401610cc8929190612d83565b602060405180830381865afa158015610ce5573d6000803e3d6000fd5b505050506040513d601f19601f82011682018060405250810190610d099190612dc1565b905090565b610d16610d72565b60005b8151811015610d5857610d45828281518110610d3857610d37612b36565b5b60200260200101516110fb565b8080610d5090612c04565b915050610d19565b5050565b600063f23a6e6160e01b90509695505050505050565b600160009054906101000a900473ffffffffffffffffffffffffffffffffffffffff1673ffffffffffffffffffffffffffffffffffffffff163373ffffffffffffffffffffffffffffffffffffffff161480610df957503073ffffffffffffffffffffffffffffffffffffffff163373ffffffffffffffffffffffffffffffffffffffff16145b610e38576040517f08c379a0000000000000000000000000000000000000000000000000000000008152600401610e2f90612e3a565b60405180910390fd5b565b610e448382611390565b610e83576040517f08c379a0000000000000000000000000000000000000000000000000000000008152600401610e7a90612d04565b60405180910390fd5b6000808473ffffffffffffffffffffffffffffffffffffffff168484604051610eac9190612ecb565b60006040518083038185875af1925050503d8060008114610ee9576040519150601f19603f3d011682016040523d82523d6000602084013e610eee565b606091505b509150915081610f0057805160208201fd5b5050505050565b610f0f610b9b565b73ffffffffffffffffffffffffffffffffffffffff163373ffffffffffffffffffffffffffffffffffffffff1614610f7c576040517f08c379a0000000000000000000000000000000000000000000000000000000008152600401610f7390612f2e565b60405180910390fd5b565b600080610f8a836115d8565b9050610ff284806101400190610fa09190612ba1565b8080601f016020809104026020016040519081016040528093929190818152602001838380828437600081840152601f19601f820116905080830192505050505050508261160890919063ffffffff16565b73ffffffffffffffffffffffffffffffffffffffff16600160009054906101000a900473ffffffffffffffffffffffffffffffffffffffff1673ffffffffffffffffffffffffffffffffffffffff1614611050576001915050611056565b60009150505b92915050565b50565b600081146110f85760003373ffffffffffffffffffffffffffffffffffffffff16827fffffffffffffffffffffffffffffffffffffffffffffffffffffffffffffffff906040516110af90612f74565b600060405180830381858888f193505050503d80600081146110ed576040519150601f19603f3d011682016040523d82523d6000602084013e6110f2565b606091505b50509050505b50565b60006002828154811061111157611110612b36565b5b906000526020600020906005020160000160009054906101000a900473ffffffffffffffffffffffffffffffffffffffff1690508073ffffffffffffffffffffffffffffffffffffffff166342842e0e306002858154811061117657611175612b36565b5b906000526020600020906005020160020160009054906101000a900473ffffffffffffffffffffffffffffffffffffffff16600286815481106111bc576111bb612b36565b5b9060005260206000209060050201600101546040518463ffffffff1660e01b81526004016111ec93929190612f89565b600060405180830381600087803b15801561120657600080fd5b505af115801561121a573d6000803e3d6000fd5b505050506112278261162f565b505050565b600080600090505b600280549050811015611387573073ffffffffffffffffffffffffffffffffffffffff166112cc6002838154811061126f5761126e612b36565b5b906000526020600020906005020160000160009054906101000a900473ffffffffffffffffffffffffffffffffffffffff16600284815481106112b5576112b4612b36565b5b906000526020600020906005020160010154611854565b73ffffffffffffffffffffffffffffffffffffffff16146112f157600091505061138d565b6113656002828154811061130857611307612b36565b5b906000526020600020906005020160000160009054906101000a900473ffffffffffffffffffffffffffffffffffffffff166002838154811061134e5761134d612b36565b5b9060005260206000209060050201600101546118dd565b1561137457600091505061138d565b808061137f90612c04565b915050611234565b50600190505b90565b60008061139c83611996565b9050600060129054906101000a900460e01b7bffffffffffffffffffffffffffffffffffffffffffffffffffffffff1916817bffffffffffffffffffffffffffffffffffffffffffffffffffffffff1916036113fc5760009150506115d2565b600060029054906101000a900460e01b7bffffffffffffffffffffffffffffffffffffffffffffffffffffffff1916817bffffffffffffffffffffffffffffffffffffffffffffffffffffffff191614806114a35750600060069054906101000a900460e01b7bffffffffffffffffffffffffffffffffffffffffffffffffffffffff1916817bffffffffffffffffffffffffffffffffffffffffffffffffffffffff1916145b806114fa57506000600a9054906101000a900460e01b7bffffffffffffffffffffffffffffffffffffffffffffffffffffffff1916817bffffffffffffffffffffffffffffffffffffffffffffffffffffffff1916145b1561155b5760008060248501519150606485015190503073ffffffffffffffffffffffffffffffffffffffff168273ffffffffffffffffffffffffffffffffffffffff16036115585761154d86826119ef565b1593505050506115d2565b50505b6000600e9054906101000a900460e01b7bffffffffffffffffffffffffffffffffffffffffffffffffffffffff1916817bffffffffffffffffffffffffffffffffffffffffffffffffffffffff1916036115cc576000604484015190506115c285826119ef565b15925050506115d2565b60019150505b92915050565b6000816040516020016115eb9190613038565b604051602081830303815290604052805190602001209050919050565b60008060006116178585611bca565b9150915061162481611c1b565b819250505092915050565b6000806001600280549050611644919061305e565b90506002818154811061165a57611659612b36565b5b90600052602060002090600502016002848154811061167c5761167b612b36565b5b90600052602060002090600502016000820160009054906101000a900473ffffffffffffffffffffffffffffffffffffffff168160000160006101000a81548173ffffffffffffffffffffffffffffffffffffffff021916908373ffffffffffffffffffffffffffffffffffffffff160217905550600182015481600101556002820160009054906101000a900473ffffffffffffffffffffffffffffffffffffffff168160020160006101000a81548173ffffffffffffffffffffffffffffffffffffffff021916908373ffffffffffffffffffffffffffffffffffffffff1602179055506002820160149054906101000a900460ff168160020160146101000a81548160ff021916908315150217905550600382015481600301556004820154816004015590505060028054806117b8576117b7613092565b5b6001900381819060005260206000209060050201600080820160006101000a81549073ffffffffffffffffffffffffffffffffffffffff021916905560018201600090556002820160006101000a81549073ffffffffffffffffffffffffffffffffffffffff02191690556002820160146101000a81549060ff0219169055600382016000905560048201600090555050905580915050919050565b6000808390508073ffffffffffffffffffffffffffffffffffffffff16636352211e846040518263ffffffff1660e01b81526004016118939190612419565b602060405180830381865afa1580156118b0573d6000803e3d6000fd5b505050506040513d601f19601f820116820180604052508101906118d491906130d6565b91505092915050565b600080839050600073ffffffffffffffffffffffffffffffffffffffff168173ffffffffffffffffffffffffffffffffffffffff1663081812fc856040518263ffffffff1660e01b81526004016119349190612419565b602060405180830381865afa158015611951573d6000803e3d6000fd5b505050506040513d601f19601f8201168201806040525081019061197591906130d6565b73ffffffffffffffffffffffffffffffffffffffff16141591505092915050565b60006004825110156119dd576040517f08c379a00000000000000000000000000000000000000000000000000000000081526004016119d49061314f565b60405180910390fd5b60006020830151905080915050919050565b600080600360008573ffffffffffffffffffffffffffffffffffffffff1673ffffffffffffffffffffffffffffffffffffffff168152602001908152602001600020805480602002602001604051908101604052809291908181526020016000905b82821015611b6857838290600052602060002090600502016040518060c00160405290816000820160009054906101000a900473ffffffffffffffffffffffffffffffffffffffff1673ffffffffffffffffffffffffffffffffffffffff1673ffffffffffffffffffffffffffffffffffffffff168152602001600182015481526020016002820160009054906101000a900473ffffffffffffffffffffffffffffffffffffffff1673ffffffffffffffffffffffffffffffffffffffff1673ffffffffffffffffffffffffffffffffffffffff1681526020016002820160149054906101000a900460ff161515151581526020016003820154815260200160048201548152505081526020019060010190611a51565b50505050905060005b8151811015611bbd5783828281518110611b8e57611b8d612b36565b5b60200260200101516020015103611baa57600192505050611bc4565b8080611bb590612c04565b915050611b71565b5060009150505b92915050565b6000806041835103611c0b5760008060006020860151925060408601519150606086015160001a9050611bff87828585611d81565b94509450505050611c14565b60006002915091505b9250929050565b60006004811115611c2f57611c2e61316f565b5b816004811115611c4257611c4161316f565b5b0315611d7e5760016004811115611c5c57611c5b61316f565b5b816004811115611c6f57611c6e61316f565b5b03611caf576040517f08c379a0000000000000000000000000000000000000000000000000000000008152600401611ca6906131ea565b60405180910390fd5b60026004811115611cc357611cc261316f565b5b816004811115611cd657611cd561316f565b5b03611d16576040517f08c379a0000000000000000000000000000000000000000000000000000000008152600401611d0d90613256565b60405180910390fd5b60036004811115611d2a57611d2961316f565b5b816004811115611d3d57611d3c61316f565b5b03611d7d576040517f08c379a0000000000000000000000000000000000000000000000000000000008152600401611d74906132e8565b60405180910390fd5b5b50565b6000807f7fffffffffffffffffffffffffffffff5d576e7357a4501ddfe92f46681b20a08360001c1115611dbc576000600391509150611e5a565b600060018787878760405160008152602001604052604051611de19493929190613333565b6020604051602081039080840390855afa158015611e03573d6000803e3d6000fd5b505050602060405103519050600073ffffffffffffffffffffffffffffffffffffffff168173ffffffffffffffffffffffffffffffffffffffff1603611e5157600060019250925050611e5a565b80600092509250505b94509492505050565b6000604051905090565b600080fd5b600080fd5b600073ffffffffffffffffffffffffffffffffffffffff82169050919050565b6000611ea282611e77565b9050919050565b611eb281611e97565b8114611ebd57600080fd5b50565b600081359050611ecf81611ea9565b92915050565b6000819050919050565b611ee881611ed5565b8114611ef357600080fd5b50565b600081359050611f0581611edf565b92915050565b600080fd5b600080fd5b600080fd5b60008083601f840112611f3057611f2f611f0b565b5b8235905067ffffffffffffffff811115611f4d57611f4c611f10565b5b602083019150836001820283011115611f6957611f68611f15565b5b9250929050565b60008060008060008060008060c0898b031215611f9057611f8f611e6d565b5b6000611f9e8b828c01611ec0565b9850506020611faf8b828c01611ec0565b9750506040611fc08b828c01611ec0565b9650506060611fd18b828c01611ef6565b955050608089013567ffffffffffffffff811115611ff257611ff1611e72565b5b611ffe8b828c01611f1a565b945094505060a089013567ffffffffffffffff81111561202157612020611e72565b5b61202d8b828c01611f1a565b92509250509295985092959890939650565b60007fffffffff0000000000000000000000000000000000000000000000000000000082169050919050565b6120748161203f565b811461207f57600080fd5b50565b6000813590506120918161206b565b92915050565b6000602082840312156120ad576120ac611e6d565b5b60006120bb84828501612082565b91505092915050565b60008115159050919050565b6120d9816120c4565b82525050565b60006020820190506120f460008301846120d0565b92915050565b6121038161203f565b82525050565b600060208201905061211e60008301846120fa565b92915050565b6000806000806080858703121561213e5761213d611e6d565b5b600061214c87828801611ec0565b945050602061215d87828801611ef6565b935050604061216e87828801611ec0565b925050606061217f87828801611ef6565b91505092959194509250565b6000806000806000608086880312156121a7576121a6611e6d565b5b60006121b588828901611ec0565b95505060206121c688828901611ec0565b94505060406121d788828901611ef6565b935050606086013567ffffffffffffffff8111156121f8576121f7611e72565b5b61220488828901611f1a565b92509250509295509295909350565b60008083601f84011261222957612228611f0b565b5b8235905067ffffffffffffffff81111561224657612245611f10565b5b60208301915083602082028301111561226257612261611f15565b5b9250929050565b60008083601f84011261227f5761227e611f0b565b5b8235905067ffffffffffffffff81111561229c5761229b611f10565b5b6020830191508360208202830111156122b8576122b7611f15565b5b9250929050565b600080600080604085870312156122d9576122d8611e6d565b5b600085013567ffffffffffffffff8111156122f7576122f6611e72565b5b61230387828801612213565b9450945050602085013567ffffffffffffffff81111561232657612325611e72565b5b61233287828801612269565b925092505092959194509250565b600080fd5b6000610160828403121561235c5761235b612340565b5b81905092915050565b6000819050919050565b61237881612365565b811461238357600080fd5b50565b6000813590506123958161236f565b92915050565b6000806000606084860312156123b4576123b3611e6d565b5b600084013567ffffffffffffffff8111156123d2576123d1611e72565b5b6123de86828701612345565b93505060206123ef86828701612386565b925050604061240086828701611ef6565b9150509250925092565b61241381611ed5565b82525050565b600060208201905061242e600083018461240a565b92915050565b60006020828403121561244a57612449611e6d565b5b600061245884828501611ef6565b91505092915050565b61246a81611e97565b82525050565b60006020820190506124856000830184612461565b92915050565b600081519050919050565b600082825260208201905092915050565b6000819050602082019050919050565b6124c081611e97565b82525050565b6124cf81611ed5565b82525050565b6124de816120c4565b82525050565b60c0820160008201516124fa60008501826124b7565b50602082015161250d60208501826124c6565b50604082015161252060408501826124b7565b50606082015161253360608501826124d5565b50608082015161254660808501826124c6565b5060a082015161255960a08501826124c6565b50505050565b600061256b83836124e4565b60c08301905092915050565b6000602082019050919050565b600061258f8261248b565b6125998185612496565b93506125a4836124a7565b8060005b838110156125d55781516125bc888261255f565b97506125c783612577565b9250506001810190506125a8565b5085935050505092915050565b600060208201905081810360008301526125fc8184612584565b905092915050565b6000819050919050565b600061262961262461261f84611e77565b612604565b611e77565b9050919050565b600061263b8261260e565b9050919050565b600061264d82612630565b9050919050565b61265d81612642565b82525050565b60006020820190506126786000830184612654565b92915050565b6000806000806060858703121561269857612697611e6d565b5b60006126a687828801611ec0565b94505060206126b787828801611ef6565b935050604085013567ffffffffffffffff8111156126d8576126d7611e72565b5b6126e487828801611f1a565b925092505092959194509250565b60008083601f84011261270857612707611f0b565b5b8235905067ffffffffffffffff81111561272557612724611f10565b5b60208301915083602082028301111561274157612740611f15565b5b9250929050565b60008060008060008060008060a0898b03121561276857612767611e6d565b5b60006127768b828c01611ec0565b98505060206127878b828c01611ec0565b975050604089013567ffffffffffffffff8111156127a8576127a7611e72565b5b6127b48b828c016126f2565b9650965050606089013567ffffffffffffffff8111156127d7576127d6611e72565b5b6127e38b828c016126f2565b9450945050608089013567ffffffffffffffff81111561280657612805611e72565b5b6128128b828c01611f1a565b92509250509295985092959890939650565b6000601f19601f8301169050919050565b7f4e487b7100000000000000000000000000000000000000000000000000000000600052604160045260246000fd5b61286d82612824565b810181811067ffffffffffffffff8211171561288c5761288b612835565b5b80604052505050565b600061289f611e63565b90506128ab8282612864565b919050565b600067ffffffffffffffff8211156128cb576128ca612835565b5b602082029050602081019050919050565b60006128ef6128ea846128b0565b612895565b9050808382526020820190506020840283018581111561291257612911611f15565b5b835b8181101561293b57806129278882611ef6565b845260208401935050602081019050612914565b5050509392505050565b600082601f83011261295a57612959611f0b565b5b813561296a8482602086016128dc565b91505092915050565b60006020828403121561298957612988611e6d565b5b600082013567ffffffffffffffff8111156129a7576129a6611e72565b5b6129b384828501612945565b91505092915050565b60008060008060008060a087890312156129d9576129d8611e6d565b5b60006129e789828a01611ec0565b96505060206129f889828a01611ec0565b9550506040612a0989828a01611ef6565b9450506060612a1a89828a01611ef6565b935050608087013567ffffffffffffffff811115612a3b57612a3a611e72565b5b612a4789828a01611f1a565b92509250509295509295509295565b7f4e487b7100000000000000000000000000000000000000000000000000000000600052601160045260246000fd5b6000612a9082611ed5565b9150612a9b83611ed5565b9250828201905080821115612ab357612ab2612a56565b5b92915050565b600082825260208201905092915050565b7f77726f6e67206172726179206c656e6774687300000000000000000000000000600082015250565b6000612b00601383612ab9565b9150612b0b82612aca565b602082019050919050565b60006020820190508181036000830152612b2f81612af3565b9050919050565b7f4e487b7100000000000000000000000000000000000000000000000000000000600052603260045260246000fd5b600060208284031215612b7b57612b7a611e6d565b5b6000612b8984828501611ec0565b91505092915050565b600080fd5b600080fd5b600080fd5b60008083356001602003843603038112612bbe57612bbd612b92565b5b80840192508235915067ffffffffffffffff821115612be057612bdf612b97565b5b602083019250600182023603831315612bfc57612bfb612b9c565b5b509250929050565b6000612c0f82611ed5565b91507fffffffffffffffffffffffffffffffffffffffffffffffffffffffffffffffff8203612c4157612c40612a56565b5b600182019050919050565b7f4c6f616e206475726174696f6e206e6f74207265616368656400000000000000600082015250565b6000612c82601983612ab9565b9150612c8d82612c4c565b602082019050919050565b60006020820190508181036000830152612cb181612c75565b9050919050565b7f556e617574686f72697a6564206f7065726174696f6e00000000000000000000600082015250565b6000612cee601683612ab9565b9150612cf982612cb8565b602082019050919050565b60006020820190508181036000830152612d1d81612ce1565b9050919050565b6000819050919050565b600077ffffffffffffffffffffffffffffffffffffffffffffffff82169050919050565b6000612d6d612d68612d6384612d24565b612604565b612d2e565b9050919050565b612d7d81612d52565b82525050565b6000604082019050612d986000830185612461565b612da56020830184612d74565b9392505050565b600081519050612dbb81611edf565b92915050565b600060208284031215612dd757612dd6611e6d565b5b6000612de584828501612dac565b91505092915050565b7f6f6e6c79206f776e657200000000000000000000000000000000000000000000600082015250565b6000612e24600a83612ab9565b9150612e2f82612dee565b602082019050919050565b60006020820190508181036000830152612e5381612e17565b9050919050565b600081519050919050565b600081905092915050565b60005b83811015612e8e578082015181840152602081019050612e73565b60008484015250505050565b6000612ea582612e5a565b612eaf8185612e65565b9350612ebf818560208601612e70565b80840191505092915050565b6000612ed78284612e9a565b915081905092915050565b7f6163636f756e743a206e6f742066726f6d20456e747279506f696e7400000000600082015250565b6000612f18601c83612ab9565b9150612f2382612ee2565b602082019050919050565b60006020820190508181036000830152612f4781612f0b565b9050919050565b50565b6000612f5e600083612e65565b9150612f6982612f4e565b600082019050919050565b6000612f7f82612f51565b9150819050919050565b6000606082019050612f9e6000830186612461565b612fab6020830185612461565b612fb8604083018461240a565b949350505050565b600081905092915050565b7f19457468657265756d205369676e6564204d6573736167653a0a333200000000600082015250565b6000613001601c83612fc0565b915061300c82612fcb565b601c82019050919050565b6000819050919050565b61303261302d82612365565b613017565b82525050565b600061304382612ff4565b915061304f8284613021565b60208201915081905092915050565b600061306982611ed5565b915061307483611ed5565b925082820390508181111561308c5761308b612a56565b5b92915050565b7f4e487b7100000000000000000000000000000000000000000000000000000000600052603160045260246000fd5b6000815190506130d081611ea9565b92915050565b6000602082840312156130ec576130eb611e6d565b5b60006130fa848285016130c1565b91505092915050565b7f496e76616c69642064617461206c656e67746800000000000000000000000000600082015250565b6000613139601383612ab9565b915061314482613103565b602082019050919050565b600060208201905081810360008301526131688161312c565b9050919050565b7f4e487b7100000000000000000000000000000000000000000000000000000000600052602160045260246000fd5b7f45434453413a20696e76616c6964207369676e61747572650000000000000000600082015250565b60006131d4601883612ab9565b91506131df8261319e565b602082019050919050565b60006020820190508181036000830152613203816131c7565b9050919050565b7f45434453413a20696e76616c6964207369676e6174757265206c656e67746800600082015250565b6000613240601f83612ab9565b915061324b8261320a565b602082019050919050565b6000602082019050818103600083015261326f81613233565b9050919050565b7f45434453413a20696e76616c6964207369676e6174757265202773272076616c60008201527f7565000000000000000000000000000000000000000000000000000000000000602082015250565b60006132d2602283612ab9565b91506132dd82613276565b604082019050919050565b60006020820190508181036000830152613301816132c5565b9050919050565b61331181612365565b82525050565b600060ff82169050919050565b61332d81613317565b82525050565b60006080820190506133486000830187613308565b6133556020830186613324565b6133626040830185613308565b61336f6060830184613308565b9594505050505056fea26469706673582212203fa3e7c97f44674d1e6aceec55baf79916839a1c99985ed6bf30f4c394f88ab564736f6c634300081100337472616e7366657246726f6d28616464726573732c616464726573732c75696e7432353629736166655472616e7366657246726f6d28616464726573732c616464726573732c75696e7432353629736166655472616e7366657246726f6d28616464726573732c616464726573732c75696e743235362c627974657329",
  "linkReferences": {},
  "deployedLinkReferences": {}
}