{
  "address": "0x3e0D0130FA29D49068804A5e4643506BaD2Df288",
  "abi": [
    {
      "inputs": [
        {
          "internalType": "address",
          "name": "factoryAddress",
          "type": "address"
        },
        {
          "internalType": "uint256",
          "name": "_feeBase",
          "type": "uint256"
        },
        {
          "internalType": "uint256",
          "name": "_feeMultiplier",
          "type": "uint256"
        }
      ],
      "stateMutability": "nonpayable",
      "type": "constructor"
    },
    {
      "anonymous": false,
      "inputs": [
        {
          "indexed": true,
          "internalType": "address",
          "name": "lender",
          "type": "address"
        },
        {
          "indexed": true,
          "internalType": "address",
          "name": "nftContract",
          "type": "address"
        },
        {
          "indexed": false,
          "internalType": "uint256",
          "name": "tokenId",
          "type": "uint256"
        }
      ],
      "name": "Listing",
      "type": "event"
    },
    {
      "anonymous": false,
      "inputs": [
        {
          "indexed": true,
          "internalType": "address",
          "name": "lender",
          "type": "address"
        },
        {
          "indexed": true,
          "internalType": "address",
          "name": "borrower",
          "type": "address"
        },
        {
          "indexed": true,
          "internalType": "address",
          "name": "nftContract",
          "type": "address"
        },
        {
          "indexed": false,
          "internalType": "uint256",
          "name": "tokenId",
          "type": "uint256"
        }
      ],
      "name": "Loan",
      "type": "event"
    },
    {
      "inputs": [
        {
          "internalType": "address",
          "name": "lender",
          "type": "address"
        },
        {
          "internalType": "uint256",
          "name": "index",
          "type": "uint256"
        },
        {
          "internalType": "uint256",
          "name": "duration",
          "type": "uint256"
        }
      ],
      "name": "borrowNFT",
      "outputs": [],
      "stateMutability": "payable",
      "type": "function"
    },
    {
      "inputs": [],
      "name": "factoryContract",
      "outputs": [
        {
          "internalType": "contract RWalletFactory",
          "name": "",
          "type": "address"
        }
      ],
      "stateMutability": "view",
      "type": "function"
    },
    {
      "inputs": [],
      "name": "feeBase",
      "outputs": [
        {
          "internalType": "uint256",
          "name": "",
          "type": "uint256"
        }
      ],
      "stateMutability": "view",
      "type": "function"
    },
    {
      "inputs": [],
      "name": "feeMultiplier",
      "outputs": [
        {
          "internalType": "uint256",
          "name": "",
          "type": "uint256"
        }
      ],
      "stateMutability": "view",
      "type": "function"
    },
    {
      "inputs": [],
      "name": "getAssets",
      "outputs": [
        {
          "components": [
            {
              "internalType": "uint256",
              "name": "index",
              "type": "uint256"
            },
            {
              "internalType": "address",
              "name": "lender",
              "type": "address"
            },
            {
              "internalType": "address",
              "name": "contract_",
              "type": "address"
            },
            {
              "internalType": "uint256",
              "name": "id",
              "type": "uint256"
            },
            {
              "internalType": "uint256",
              "name": "price",
              "type": "uint256"
            },
            {
              "internalType": "uint256",
              "name": "maxDuration",
              "type": "uint256"
            }
          ],
          "internalType": "struct BaseMarketPlace.NFT[]",
          "name": "",
          "type": "tuple[]"
        }
      ],
      "stateMutability": "view",
      "type": "function"
    },
    {
      "inputs": [
        {
          "internalType": "address",
          "name": "lender",
          "type": "address"
        }
      ],
      "name": "getAssetsByLender",
      "outputs": [
        {
          "components": [
            {
              "internalType": "uint256",
              "name": "index",
              "type": "uint256"
            },
            {
              "internalType": "address",
              "name": "lender",
              "type": "address"
            },
            {
              "internalType": "address",
              "name": "contract_",
              "type": "address"
            },
            {
              "internalType": "uint256",
              "name": "id",
              "type": "uint256"
            },
            {
              "internalType": "uint256",
              "name": "price",
              "type": "uint256"
            },
            {
              "internalType": "uint256",
              "name": "maxDuration",
              "type": "uint256"
            }
          ],
          "internalType": "struct BaseMarketPlace.NFT[]",
          "name": "",
          "type": "tuple[]"
        }
      ],
      "stateMutability": "view",
      "type": "function"
    },
    {
      "inputs": [
        {
          "internalType": "address",
          "name": "account",
          "type": "address"
        }
      ],
      "name": "getBalance",
      "outputs": [
        {
          "internalType": "uint256",
          "name": "",
          "type": "uint256"
        }
      ],
      "stateMutability": "view",
      "type": "function"
    },
    {
      "inputs": [
        {
          "internalType": "address",
          "name": "account",
          "type": "address"
        }
      ],
      "name": "isWallet",
      "outputs": [
        {
          "internalType": "bool",
          "name": "",
          "type": "bool"
        }
      ],
      "stateMutability": "view",
      "type": "function"
    },
    {
      "inputs": [
        {
          "internalType": "address",
          "name": "contract_",
          "type": "address"
        },
        {
          "internalType": "uint256",
          "name": "tokenId",
          "type": "uint256"
        },
        {
          "internalType": "uint256",
          "name": "price",
          "type": "uint256"
        },
        {
          "internalType": "uint256",
          "name": "maxDuration",
          "type": "uint256"
        }
      ],
      "name": "lendNFT",
      "outputs": [],
      "stateMutability": "nonpayable",
      "type": "function"
    },
    {
      "inputs": [],
      "name": "treasury",
      "outputs": [
        {
          "internalType": "uint256",
          "name": "",
          "type": "uint256"
        }
      ],
      "stateMutability": "view",
      "type": "function"
    },
    {
      "inputs": [],
      "name": "withdraw",
      "outputs": [],
      "stateMutability": "nonpayable",
      "type": "function"
    }
  ],
  "transactionHash": "0xaa59564248443424d50b421ef87cfe0a9e709b3064e485cc7f16fdcad8821000",
  "args": [
    "0x8fA7D1434A90ad1d5FDf461395fA92f69Dc5C9E3",
    1000,
    3
  ],
  "numDeployments": 1,
  "solcInputHash": "19599842c666e55dcd30bd3c91e7ff88",
  "bytecode": "0x60a060405234801561001057600080fd5b5060405161180d38038061180d83398101604081905261002f91610048565b6001600160a01b0390921660805260015560025561008b565b60008060006060848603121561005d57600080fd5b83516001600160a01b038116811461007457600080fd5b602085015160409095015190969495509392505050565b6080516117606100ad600039600081816101d20152610f2f01526117606000f3fe6080604052600436106100bc5760003560e01c80638507fa6d11610074578063de11c94a1161004e578063de11c94a146101c0578063e5a70ef714610219578063f8b2cb4f1461022f57600080fd5b80638507fa6d1461016757806395e911a81461017a578063ce5570ec1461019057600080fd5b80633ccfd60b116100a55780633ccfd60b1461011957806361d027b31461012e57806367e4ac2c1461015257600080fd5b80631764e668146100c15780632dcc1b49146100e3575b600080fd5b3480156100cd57600080fd5b506100e16100dc366004611479565b610272565b005b3480156100ef57600080fd5b506101036100fe3660046114b4565b610660565b60405161011091906114d8565b60405180910390f35b34801561012557600080fd5b506100e1610731565b34801561013a57600080fd5b5061014460005481565b604051908152602001610110565b34801561015e57600080fd5b50610103610893565b6100e1610175366004611569565b610941565b34801561018657600080fd5b5061014460015481565b34801561019c57600080fd5b506101b06101ab3660046114b4565b610ee7565b6040519015158152602001610110565b3480156101cc57600080fd5b506101f47f000000000000000000000000000000000000000000000000000000000000000081565b60405173ffffffffffffffffffffffffffffffffffffffff9091168152602001610110565b34801561022557600080fd5b5061014460025481565b34801561023b57600080fd5b5061014461024a3660046114b4565b73ffffffffffffffffffffffffffffffffffffffff1660009081526005602052604090205490565b61027c8484610fa2565b6102e7576040517f08c379a000000000000000000000000000000000000000000000000000000000815260206004820152601560248201527f4f70657261746f72206e6f7420617070726f766564000000000000000000000060448201526064015b60405180910390fd5b6102f18484611188565b73ffffffffffffffffffffffffffffffffffffffff163373ffffffffffffffffffffffffffffffffffffffff1614610385576040517f08c379a000000000000000000000000000000000000000000000000000000000815260206004820152601760248201527f63616c6c6572206973206e6f74204e4654206f776e657200000000000000000060448201526064016102de565b6000600380549050905060006040518060c001604052808381526020013373ffffffffffffffffffffffffffffffffffffffff1681526020018773ffffffffffffffffffffffffffffffffffffffff16815260200186815260200185815260200184815250905060038190806001815401808255809150506001900390600052602060002090600602016000909190919091506000820151816000015560208201518160010160006101000a81548173ffffffffffffffffffffffffffffffffffffffff021916908373ffffffffffffffffffffffffffffffffffffffff16021790555060408201518160020160006101000a81548173ffffffffffffffffffffffffffffffffffffffff021916908373ffffffffffffffffffffffffffffffffffffffff160217905550606082015181600301556080820151816004015560a082015181600501555050600460003373ffffffffffffffffffffffffffffffffffffffff1673ffffffffffffffffffffffffffffffffffffffff1681526020019081526020016000208190806001815401808255809150506001900390600052602060002090600602016000909190919091506000820151816000015560208201518160010160006101000a81548173ffffffffffffffffffffffffffffffffffffffff021916908373ffffffffffffffffffffffffffffffffffffffff16021790555060408201518160020160006101000a81548173ffffffffffffffffffffffffffffffffffffffff021916908373ffffffffffffffffffffffffffffffffffffffff160217905550606082015181600301556080820151816004015560a0820151816005015550508573ffffffffffffffffffffffffffffffffffffffff163373ffffffffffffffffffffffffffffffffffffffff167ffe86fabb08b2094c1ed7038a38eeed8c4827c1a5179b1cddcda03cf1bff22f008760405161065091815260200190565b60405180910390a3505050505050565b73ffffffffffffffffffffffffffffffffffffffff81166000908152600460209081526040808320805482518185028101850190935280835260609492939192909184015b828210156107265760008481526020908190206040805160c081018252600686029092018054835260018082015473ffffffffffffffffffffffffffffffffffffffff908116858701526002830154169284019290925260038101546060840152600481015460808401526005015460a083015290835290920191016106a5565b505050509050919050565b33600090815260056020526040902054806107ce576040517f08c379a000000000000000000000000000000000000000000000000000000000815260206004820152602660248201527f7468657265206973206e6f2062616c616e636520666f722063616c6c6572206160448201527f646472657373000000000000000000000000000000000000000000000000000060648201526084016102de565b336000818152600560205260408082208290555190919083908381818185875af1925050503d806000811461081f576040519150601f19603f3d011682016040523d82523d6000602084013e610824565b606091505b505090508061088f576040517f08c379a000000000000000000000000000000000000000000000000000000000815260206004820152601860248201527f7472616e73666572206f662066756e6473206661696c6564000000000000000060448201526064016102de565b5050565b60606003805480602002602001604051908101604052809291908181526020016000905b828210156109385760008481526020908190206040805160c081018252600686029092018054835260018082015473ffffffffffffffffffffffffffffffffffffffff908116858701526002830154169284019290925260038101546060840152600481015460808401526005015460a083015290835290920191016108b7565b50505050905090565b61094a33610ee7565b6109d6576040517f08c379a000000000000000000000000000000000000000000000000000000000815260206004820152602660248201527f63616c6c6572206973206e6f7420612072656e7465722077616c6c657420636f60448201527f6e7472616374000000000000000000000000000000000000000000000000000060648201526084016102de565b6000600383815481106109eb576109eb61159e565b906000526020600020906006020160050154905080821115610a69576040517f08c379a000000000000000000000000000000000000000000000000000000000815260206004820152601860248201527f6c6f616e20706572696f642073657420746f6f206c6f6e67000000000000000060448201526064016102de565b600060038481548110610a7e57610a7e61159e565b906000526020600020906006020160040154905060006001546002548584610aa691906115fc565b610ab091906115fc565b610aba9190611639565b905080610ac785846115fc565b610ad19190611674565b341015610b3a576040517f08c379a000000000000000000000000000000000000000000000000000000000815260206004820152601060248201527f6e6f7420656e6f7567682066756e64730000000000000000000000000000000060448201526064016102de565b600060038681548110610b4f57610b4f61159e565b9060005260206000209060060201600301549050600060038781548110610b7857610b7861159e565b6000918252602082206002600690920201015473ffffffffffffffffffffffffffffffffffffffff169150610bad3383611224565b1115610c3b576040517f08c379a000000000000000000000000000000000000000000000000000000000815260206004820152602760248201527f6572726f723a206f70657261746f7220636f756e74206772656174657220746860448201527f616e207a65726f0000000000000000000000000000000000000000000000000060648201526084016102de565b610c458183610fa2565b610cd1576040517f08c379a000000000000000000000000000000000000000000000000000000000815260206004820152602160248201527f6572726f723a20746f6b656e20617070726f76616c20776173207265766f6b6560448201527f640000000000000000000000000000000000000000000000000000000000000060648201526084016102de565b610cdb86856115fc565b73ffffffffffffffffffffffffffffffffffffffff891660009081526005602052604081208054909190610d10908490611674565b9250508190555082600080828254610d289190611674565b90915550506040517f12dc8ca000000000000000000000000000000000000000000000000000000000815273ffffffffffffffffffffffffffffffffffffffff80831660048301526024820184905289166044820152606481018790528190339081906312dc8ca090608401600060405180830381600087803b158015610dae57600080fd5b505af1158015610dc2573d6000803e3d6000fd5b50505050610dcf896112b9565b6040517f23b872dd00000000000000000000000000000000000000000000000000000000815273ffffffffffffffffffffffffffffffffffffffff8b81166004830152336024830152604482018690528316906323b872dd90606401600060405180830381600087803b158015610e4557600080fd5b505af1158015610e59573d6000803e3d6000fd5b505050508273ffffffffffffffffffffffffffffffffffffffff163373ffffffffffffffffffffffffffffffffffffffff168b73ffffffffffffffffffffffffffffffffffffffff167fb67dc983cbf33801435f738a4be401cf48a5dc01e7c11022176fc8fe00e4b7eb87604051610ed391815260200190565b60405180910390a450505050505050505050565b6040517fce5570ec00000000000000000000000000000000000000000000000000000000815273ffffffffffffffffffffffffffffffffffffffff82811660048301526000917f00000000000000000000000000000000000000000000000000000000000000009091169063ce5570ec90602401602060405180830381865afa158015610f78573d6000803e3d6000fd5b505050506040513d601f19601f82011682018060405250810190610f9c919061168c565b92915050565b6040517f6352211e000000000000000000000000000000000000000000000000000000008152600481018290526000908390829073ffffffffffffffffffffffffffffffffffffffff831690636352211e90602401602060405180830381865afa158015611014573d6000803e3d6000fd5b505050506040513d601f19601f8201168201806040525081019061103891906116ae565b6040517f081812fc00000000000000000000000000000000000000000000000000000000815260048101869052909150309073ffffffffffffffffffffffffffffffffffffffff84169063081812fc90602401602060405180830381865afa1580156110a8573d6000803e3d6000fd5b505050506040513d601f19601f820116820180604052508101906110cc91906116ae565b73ffffffffffffffffffffffffffffffffffffffff16148061117f57506040517fe985e9c500000000000000000000000000000000000000000000000000000000815273ffffffffffffffffffffffffffffffffffffffff828116600483015230602483015283169063e985e9c590604401602060405180830381865afa15801561115b573d6000803e3d6000fd5b505050506040513d601f19601f8201168201806040525081019061117f919061168c565b95945050505050565b6040517f6352211e00000000000000000000000000000000000000000000000000000000815260048101829052600090839073ffffffffffffffffffffffffffffffffffffffff821690636352211e90602401602060405180830381865afa1580156111f8573d6000803e3d6000fd5b505050506040513d601f19601f8201168201806040525081019061121c91906116ae565b949350505050565b6040517f89e5900a00000000000000000000000000000000000000000000000000000000815273ffffffffffffffffffffffffffffffffffffffff828116600483015260009184918216906389e5900a90602401602060405180830381865afa158015611295573d6000803e3d6000fd5b505050506040513d601f19601f8201168201806040525081019061121c91906116cb565b6003546000906112cb906001906116e4565b9050600381815481106112e0576112e061159e565b9060005260206000209060060201600383815481106113015761130161159e565b600091825260209091208254600690920201908155600180830154908201805473ffffffffffffffffffffffffffffffffffffffff9283167fffffffffffffffffffffffff0000000000000000000000000000000000000000918216179091556002808501549084018054919093169116179055600380830154818301556004808401549083015560059283015492909101919091558054839190829081106113ac576113ac61159e565b600091825260209091206006909102015560038054806113ce576113ce6116fb565b60008281526020812060067fffffffffffffffffffffffffffffffffffffffffffffffffffffffffffffffff909301928302018181556001810180547fffffffffffffffffffffffff0000000000000000000000000000000000000000908116909155600282018054909116905560038101829055600481018290556005015590555050565b73ffffffffffffffffffffffffffffffffffffffff8116811461147657600080fd5b50565b6000806000806080858703121561148f57600080fd5b843561149a81611454565b966020860135965060408601359560600135945092505050565b6000602082840312156114c657600080fd5b81356114d181611454565b9392505050565b602080825282518282018190526000919060409081850190868401855b8281101561155c578151805185528681015173ffffffffffffffffffffffffffffffffffffffff90811688870152868201511686860152606080820151908601526080808201519086015260a0908101519085015260c090930192908501906001016114f5565b5091979650505050505050565b60008060006060848603121561157e57600080fd5b833561158981611454565b95602085013595506040909401359392505050565b7f4e487b7100000000000000000000000000000000000000000000000000000000600052603260045260246000fd5b7f4e487b7100000000000000000000000000000000000000000000000000000000600052601160045260246000fd5b6000817fffffffffffffffffffffffffffffffffffffffffffffffffffffffffffffffff0483118215151615611634576116346115cd565b500290565b60008261166f577f4e487b7100000000000000000000000000000000000000000000000000000000600052601260045260246000fd5b500490565b60008219821115611687576116876115cd565b500190565b60006020828403121561169e57600080fd5b815180151581146114d157600080fd5b6000602082840312156116c057600080fd5b81516114d181611454565b6000602082840312156116dd57600080fd5b5051919050565b6000828210156116f6576116f66115cd565b500390565b7f4e487b7100000000000000000000000000000000000000000000000000000000600052603160045260246000fdfea264697066735822122034a403ef22ca61c47340025131b6c9d3026f8becaddef3dd287db605e716a7b964736f6c634300080f0033",
  "devdoc": {
    "kind": "dev",
    "methods": {},
    "version": 1
  },
  "userdoc": {
    "kind": "user",
    "methods": {},
    "version": 1
  },
  "storageLayout": {
    "storage": [
      {
        "astId": 2942,
        "contract": "contracts/core/BaseMarketPlace.sol:BaseMarketPlace",
        "label": "treasury",
        "offset": 0,
        "slot": "0",
        "type": "t_uint256"
      },
      {
        "astId": 2944,
        "contract": "contracts/core/BaseMarketPlace.sol:BaseMarketPlace",
        "label": "feeBase",
        "offset": 0,
        "slot": "1",
        "type": "t_uint256"
      },
      {
        "astId": 2946,
        "contract": "contracts/core/BaseMarketPlace.sol:BaseMarketPlace",
        "label": "feeMultiplier",
        "offset": 0,
        "slot": "2",
        "type": "t_uint256"
      },
      {
        "astId": 2963,
        "contract": "contracts/core/BaseMarketPlace.sol:BaseMarketPlace",
        "label": "_assets",
        "offset": 0,
        "slot": "3",
        "type": "t_array(t_struct(NFT)2959_storage)dyn_storage"
      },
      {
        "astId": 2969,
        "contract": "contracts/core/BaseMarketPlace.sol:BaseMarketPlace",
        "label": "_assetsByLender",
        "offset": 0,
        "slot": "4",
        "type": "t_mapping(t_address,t_array(t_struct(NFT)2959_storage)dyn_storage)"
      },
      {
        "astId": 2973,
        "contract": "contracts/core/BaseMarketPlace.sol:BaseMarketPlace",
        "label": "_balances",
        "offset": 0,
        "slot": "5",
        "type": "t_mapping(t_address,t_uint256)"
      }
    ],
    "types": {
      "t_address": {
        "encoding": "inplace",
        "label": "address",
        "numberOfBytes": "20"
      },
      "t_array(t_struct(NFT)2959_storage)dyn_storage": {
        "base": "t_struct(NFT)2959_storage",
        "encoding": "dynamic_array",
        "label": "struct BaseMarketPlace.NFT[]",
        "numberOfBytes": "32"
      },
      "t_mapping(t_address,t_array(t_struct(NFT)2959_storage)dyn_storage)": {
        "encoding": "mapping",
        "key": "t_address",
        "label": "mapping(address => struct BaseMarketPlace.NFT[])",
        "numberOfBytes": "32",
        "value": "t_array(t_struct(NFT)2959_storage)dyn_storage"
      },
      "t_mapping(t_address,t_uint256)": {
        "encoding": "mapping",
        "key": "t_address",
        "label": "mapping(address => uint256)",
        "numberOfBytes": "32",
        "value": "t_uint256"
      },
      "t_struct(NFT)2959_storage": {
        "encoding": "inplace",
        "label": "struct BaseMarketPlace.NFT",
        "members": [
          {
            "astId": 2948,
            "contract": "contracts/core/BaseMarketPlace.sol:BaseMarketPlace",
            "label": "index",
            "offset": 0,
            "slot": "0",
            "type": "t_uint256"
          },
          {
            "astId": 2950,
            "contract": "contracts/core/BaseMarketPlace.sol:BaseMarketPlace",
            "label": "lender",
            "offset": 0,
            "slot": "1",
            "type": "t_address"
          },
          {
            "astId": 2952,
            "contract": "contracts/core/BaseMarketPlace.sol:BaseMarketPlace",
            "label": "contract_",
            "offset": 0,
            "slot": "2",
            "type": "t_address"
          },
          {
            "astId": 2954,
            "contract": "contracts/core/BaseMarketPlace.sol:BaseMarketPlace",
            "label": "id",
            "offset": 0,
            "slot": "3",
            "type": "t_uint256"
          },
          {
            "astId": 2956,
            "contract": "contracts/core/BaseMarketPlace.sol:BaseMarketPlace",
            "label": "price",
            "offset": 0,
            "slot": "4",
            "type": "t_uint256"
          },
          {
            "astId": 2958,
            "contract": "contracts/core/BaseMarketPlace.sol:BaseMarketPlace",
            "label": "maxDuration",
            "offset": 0,
            "slot": "5",
            "type": "t_uint256"
          }
        ],
        "numberOfBytes": "192"
      },
      "t_uint256": {
        "encoding": "inplace",
        "label": "uint256",
        "numberOfBytes": "32"
      }
    }
  }
}